{
  "_format": "hh-sol-artifact-1",
  "contractName": "Beta",
  "sourceName": "contracts/Beta.sol",
  "abi": [
    {
      "anonymous": false,
      "inputs": [
        {
          "indexed": false,
          "internalType": "uint256",
          "name": "newNumber",
          "type": "uint256"
        }
      ],
      "name": "NumberChanged",
      "type": "event"
    },
    {
      "inputs": [],
      "name": "addNumber",
      "outputs": [],
      "stateMutability": "nonpayable",
      "type": "function"
    },
    {
      "inputs": [],
      "name": "retrieve",
      "outputs": [
        {
          "internalType": "uint256",
          "name": "",
          "type": "uint256"
        }
      ],
      "stateMutability": "view",
      "type": "function"
    },
    {
      "inputs": [
        {
          "internalType": "uint256",
          "name": "newNumber",
          "type": "uint256"
        }
      ],
      "name": "store",
      "outputs": [],
      "stateMutability": "nonpayable",
      "type": "function"
    }
  ],
  "bytecode": "0x608060405234801561001057600080fd5b5061026c806100206000396000f3fe608060405234801561001057600080fd5b50600436106100415760003560e01c80632e64cec1146100465780636057361d14610064578063ba65a52314610080575b600080fd5b61004e61008a565b60405161005b9190610175565b60405180910390f35b61007e6004803603810190610079919061013d565b610093565b005b6100886100d4565b005b60008054905090565b806000819055507f2fd81fd19d3c5c4b396dd13f451dafc8bcac1b3094c49c5fa90e68456323f0e3816040516100c99190610175565b60405180910390a150565b60016000808282546100e69190610190565b925050819055507f2fd81fd19d3c5c4b396dd13f451dafc8bcac1b3094c49c5fa90e68456323f0e360005460405161011e9190610175565b60405180910390a1565b6000813590506101378161021f565b92915050565b60006020828403121561014f57600080fd5b600061015d84828501610128565b91505092915050565b61016f816101e6565b82525050565b600060208201905061018a6000830184610166565b92915050565b600061019b826101e6565b91506101a6836101e6565b9250827fffffffffffffffffffffffffffffffffffffffffffffffffffffffffffffffff038211156101db576101da6101f0565b5b828201905092915050565b6000819050919050565b7f4e487b7100000000000000000000000000000000000000000000000000000000600052601160045260246000fd5b610228816101e6565b811461023357600080fd5b5056fea26469706673582212201997585d666c97a6056d2150b4dcba0bccc96f13de3e135e5b0a10dc30472f4564736f6c63430008020033",
  "linkReferences": {},
  "deployedLinkReferences": {}
}